:1000000009C016C015C014C013C012C011C010C062
:1000100010C00EC011241FBECFE9CDBF20E0A0E666
:10002000B0E001C01D92A136B207E1F729D09BC014
:10003000E7CF1F920F920FB60F9211240F900FBEB1
:100040000F901F901895009739F02AE22A95F1F742
:1000500000C0A8950197F7CF0895CF93DF938F3F06
:100060002FEF920711F488E592E0EC01209729F038
:1000700088EE93E0E8DF2197F9CFDF91CF910895E3
:1000800080E886BD16BC80E187BB8CE288BB83E03C
:1000900085BD81E385BF80E090E04BD08093600018
:1000A0008F3F19F487E0809360008091600088643E
:1000B0008093600088E181BD8091600081BD78946B
:1000C00084E690E0C0DFC49A85E090E03AD0C5DFD6
:1000D000C8E18895C1BD8091600081BD86B3837001
:1000E000C1F783E090E02DD08F3F2FEF920711F4FE
:1000F00088E893E1009749F0A8952AE22A95F1F75C
:1001000000C026B301972370A9F386B3837009F763
:10011000C49881E090E015D08F3F2FEF920711F443
:1001200080E197E290DFC49A85E090E00AD08BDF0F
:10013000D0CFE199FECF1FBA8EBBE09A99278DB33D
:100140000895A8E142E002C0A82F862FE82FE19988
:10015000FECF1FBA05C0EEBBE09AE3950DB20D923B
:0A0160004150C8F70895F894FFCF4E
:00000001FF
